{
  "_format": "hh-sol-artifact-1",
  "contractName": "UserRegistry",
  "sourceName": "contracts/UserRegistry.sol",
  "abi": [
    {
      "anonymous": false,
      "inputs": [
        {
          "indexed": true,
          "internalType": "address",
          "name": "user",
          "type": "address"
        },
        {
          "indexed": false,
          "internalType": "string",
          "name": "username",
          "type": "string"
        }
      ],
      "name": "UserRegistered",
      "type": "event"
    },
    {
      "anonymous": false,
      "inputs": [
        {
          "indexed": true,
          "internalType": "address",
          "name": "user",
          "type": "address"
        },
        {
          "indexed": false,
          "internalType": "string",
          "name": "oldUsername",
          "type": "string"
        },
        {
          "indexed": false,
          "internalType": "string",
          "name": "newUsername",
          "type": "string"
        }
      ],
      "name": "UsernameUpdated",
      "type": "event"
    },
    {
      "inputs": [
        {
          "internalType": "string",
          "name": "_username",
          "type": "string"
        }
      ],
      "name": "getAddressByUsername",
      "outputs": [
        {
          "internalType": "address",
          "name": "",
          "type": "address"
        }
      ],
      "stateMutability": "view",
      "type": "function"
    },
    {
      "inputs": [
        {
          "internalType": "address",
          "name": "_user",
          "type": "address"
        }
      ],
      "name": "getUser",
      "outputs": [
        {
          "components": [
            {
              "internalType": "address",
              "name": "wallet",
              "type": "address"
            },
            {
              "internalType": "string",
              "name": "username",
              "type": "string"
            },
            {
              "internalType": "bool",
              "name": "exists",
              "type": "bool"
            },
            {
              "internalType": "uint256",
              "name": "registeredAt",
              "type": "uint256"
            }
          ],
          "internalType": "struct UserRegistry.User",
          "name": "",
          "type": "tuple"
        }
      ],
      "stateMutability": "view",
      "type": "function"
    },
    {
      "inputs": [],
      "name": "getUserCount",
      "outputs": [
        {
          "internalType": "uint256",
          "name": "",
          "type": "uint256"
        }
      ],
      "stateMutability": "view",
      "type": "function"
    },
    {
      "inputs": [
        {
          "internalType": "address",
          "name": "_user",
          "type": "address"
        }
      ],
      "name": "isRegistered",
      "outputs": [
        {
          "internalType": "bool",
          "name": "",
          "type": "bool"
        }
      ],
      "stateMutability": "view",
      "type": "function"
    },
    {
      "inputs": [
        {
          "internalType": "string",
          "name": "_username",
          "type": "string"
        }
      ],
      "name": "registerUser",
      "outputs": [],
      "stateMutability": "nonpayable",
      "type": "function"
    },
    {
      "inputs": [
        {
          "internalType": "string",
          "name": "_newUsername",
          "type": "string"
        }
      ],
      "name": "updateUsername",
      "outputs": [],
      "stateMutability": "nonpayable",
      "type": "function"
    }
  ],
  "bytecode": "0x608060405234801561001057600080fd5b5061173d806100206000396000f3fe608060405234801561001057600080fd5b50600436106100625760003560e01c80636322961d146100675780636f77926b14610097578063704f1b94146100c7578063b5cb15f7146100e3578063c3c5a54714610101578063c96cea7014610131575b600080fd5b610081600480360381019061007c9190610da6565b61014d565b60405161008e9190610e30565b60405180910390f35b6100b160048036038101906100ac9190610e77565b610209565b6040516100be9190610fc9565b60405180910390f35b6100e160048036038101906100dc9190610da6565b6103fc565b005b6100eb6107d4565b6040516100f89190610ffa565b60405180910390f35b61011b60048036038101906101169190610e77565b6107e1565b6040516101289190611024565b60405180910390f35b61014b60048036038101906101469190610da6565b610839565b005b600080600183604051610160919061107b565b908152602001604051809103902060009054906101000a900473ffffffffffffffffffffffffffffffffffffffff169050600073ffffffffffffffffffffffffffffffffffffffff168173ffffffffffffffffffffffffffffffffffffffff1603610200576040517f08c379a00000000000000000000000000000000000000000000000000000000081526004016101f7906110ef565b60405180910390fd5b80915050919050565b610211610c0c565b6000808373ffffffffffffffffffffffffffffffffffffffff1673ffffffffffffffffffffffffffffffffffffffff16815260200190815260200160002060020160009054906101000a900460ff1661029f576040517f08c379a00000000000000000000000000000000000000000000000000000000081526004016102969061115b565b60405180910390fd5b6000808373ffffffffffffffffffffffffffffffffffffffff1673ffffffffffffffffffffffffffffffffffffffff1681526020019081526020016000206040518060800160405290816000820160009054906101000a900473ffffffffffffffffffffffffffffffffffffffff1673ffffffffffffffffffffffffffffffffffffffff1673ffffffffffffffffffffffffffffffffffffffff16815260200160018201805461034e906111aa565b80601f016020809104026020016040519081016040528092919081815260200182805461037a906111aa565b80156103c75780601f1061039c576101008083540402835291602001916103c7565b820191906000526020600020905b8154815290600101906020018083116103aa57829003601f168201915b505050505081526020016002820160009054906101000a900460ff161515151581526020016003820154815250509050919050565b6000803373ffffffffffffffffffffffffffffffffffffffff1673ffffffffffffffffffffffffffffffffffffffff16815260200190815260200160002060020160009054906101000a900460ff161561048b576040517f08c379a000000000000000000000000000000000000000000000000000000000815260040161048290611227565b60405180910390fd5b60008151116104cf576040517f08c379a00000000000000000000000000000000000000000000000000000000081526004016104c690611293565b60405180910390fd5b602081511115610514576040517f08c379a000000000000000000000000000000000000000000000000000000000815260040161050b906112ff565b60405180910390fd5b600073ffffffffffffffffffffffffffffffffffffffff1660018260405161053c919061107b565b908152602001604051809103902060009054906101000a900473ffffffffffffffffffffffffffffffffffffffff1673ffffffffffffffffffffffffffffffffffffffff16146105c1576040517f08c379a00000000000000000000000000000000000000000000000000000000081526004016105b89061136b565b60405180910390fd5b60405180608001604052803373ffffffffffffffffffffffffffffffffffffffff168152602001828152602001600115158152602001428152506000803373ffffffffffffffffffffffffffffffffffffffff1673ffffffffffffffffffffffffffffffffffffffff16815260200190815260200160002060008201518160000160006101000a81548173ffffffffffffffffffffffffffffffffffffffff021916908373ffffffffffffffffffffffffffffffffffffffff16021790555060208201518160010190816106959190611537565b5060408201518160020160006101000a81548160ff02191690831515021790555060608201518160030155905050336001826040516106d4919061107b565b908152602001604051809103902060006101000a81548173ffffffffffffffffffffffffffffffffffffffff021916908373ffffffffffffffffffffffffffffffffffffffff1602179055506002339080600181540180825580915050600190039060005260206000200160009091909190916101000a81548173ffffffffffffffffffffffffffffffffffffffff021916908373ffffffffffffffffffffffffffffffffffffffff1602179055503373ffffffffffffffffffffffffffffffffffffffff167f48cac28ad4dc618e15f4c2dd5e97751182f166de97b25618318b2112aa951a2f826040516107c99190611642565b60405180910390a250565b6000600280549050905090565b60008060008373ffffffffffffffffffffffffffffffffffffffff1673ffffffffffffffffffffffffffffffffffffffff16815260200190815260200160002060020160009054906101000a900460ff169050919050565b6000803373ffffffffffffffffffffffffffffffffffffffff1673ffffffffffffffffffffffffffffffffffffffff16815260200190815260200160002060020160009054906101000a900460ff166108c7576040517f08c379a00000000000000000000000000000000000000000000000000000000081526004016108be906116b0565b60405180910390fd5b600081511161090b576040517f08c379a000000000000000000000000000000000000000000000000000000000815260040161090290611293565b60405180910390fd5b602081511115610950576040517f08c379a0000000000000000000000000000000000000000000000000000000008152600401610947906112ff565b60405180910390fd5b600073ffffffffffffffffffffffffffffffffffffffff16600182604051610978919061107b565b908152602001604051809103902060009054906101000a900473ffffffffffffffffffffffffffffffffffffffff1673ffffffffffffffffffffffffffffffffffffffff16146109fd576040517f08c379a00000000000000000000000000000000000000000000000000000000081526004016109f49061136b565b60405180910390fd5b60008060003373ffffffffffffffffffffffffffffffffffffffff1673ffffffffffffffffffffffffffffffffffffffff1681526020019081526020016000206001018054610a4b906111aa565b80601f0160208091040260200160405190810160405280929190818152602001828054610a77906111aa565b8015610ac45780601f10610a9957610100808354040283529160200191610ac4565b820191906000526020600020905b815481529060010190602001808311610aa757829003601f168201915b50505050509050600181604051610adb919061107b565b908152602001604051809103902060006101000a81549073ffffffffffffffffffffffffffffffffffffffff0219169055816000803373ffffffffffffffffffffffffffffffffffffffff1673ffffffffffffffffffffffffffffffffffffffff1681526020019081526020016000206001019081610b5a9190611537565b5033600183604051610b6c919061107b565b908152602001604051809103902060006101000a81548173ffffffffffffffffffffffffffffffffffffffff021916908373ffffffffffffffffffffffffffffffffffffffff1602179055503373ffffffffffffffffffffffffffffffffffffffff167f13428138c872937c879d86da5f1947a7625d28588e4f7f2c44bcb70abbd774738284604051610c009291906116d0565b60405180910390a25050565b6040518060800160405280600073ffffffffffffffffffffffffffffffffffffffff16815260200160608152602001600015158152602001600081525090565b6000604051905090565b600080fd5b600080fd5b600080fd5b600080fd5b6000601f19601f8301169050919050565b7f4e487b7100000000000000000000000000000000000000000000000000000000600052604160045260246000fd5b610cb382610c6a565b810181811067ffffffffffffffff82111715610cd257610cd1610c7b565b5b80604052505050565b6000610ce5610c4c565b9050610cf18282610caa565b919050565b600067ffffffffffffffff821115610d1157610d10610c7b565b5b610d1a82610c6a565b9050602081019050919050565b82818337600083830152505050565b6000610d49610d4484610cf6565b610cdb565b905082815260208101848484011115610d6557610d64610c65565b5b610d70848285610d27565b509392505050565b600082601f830112610d8d57610d8c610c60565b5b8135610d9d848260208601610d36565b91505092915050565b600060208284031215610dbc57610dbb610c56565b5b600082013567ffffffffffffffff811115610dda57610dd9610c5b565b5b610de684828501610d78565b91505092915050565b600073ffffffffffffffffffffffffffffffffffffffff82169050919050565b6000610e1a82610def565b9050919050565b610e2a81610e0f565b82525050565b6000602082019050610e456000830184610e21565b92915050565b610e5481610e0f565b8114610e5f57600080fd5b50565b600081359050610e7181610e4b565b92915050565b600060208284031215610e8d57610e8c610c56565b5b6000610e9b84828501610e62565b91505092915050565b610ead81610e0f565b82525050565b600081519050919050565b600082825260208201905092915050565b60005b83811015610eed578082015181840152602081019050610ed2565b60008484015250505050565b6000610f0482610eb3565b610f0e8185610ebe565b9350610f1e818560208601610ecf565b610f2781610c6a565b840191505092915050565b60008115159050919050565b610f4781610f32565b82525050565b6000819050919050565b610f6081610f4d565b82525050565b6000608083016000830151610f7e6000860182610ea4565b5060208301518482036020860152610f968282610ef9565b9150506040830151610fab6040860182610f3e565b506060830151610fbe6060860182610f57565b508091505092915050565b60006020820190508181036000830152610fe38184610f66565b905092915050565b610ff481610f4d565b82525050565b600060208201905061100f6000830184610feb565b92915050565b61101e81610f32565b82525050565b60006020820190506110396000830184611015565b92915050565b600081905092915050565b600061105582610eb3565b61105f818561103f565b935061106f818560208601610ecf565b80840191505092915050565b6000611087828461104a565b915081905092915050565b600082825260208201905092915050565b7f557365726e616d65206e6f7420666f756e640000000000000000000000000000600082015250565b60006110d9601283611092565b91506110e4826110a3565b602082019050919050565b60006020820190508181036000830152611108816110cc565b9050919050565b7f55736572206e6f7420666f756e64000000000000000000000000000000000000600082015250565b6000611145600e83611092565b91506111508261110f565b602082019050919050565b6000602082019050818103600083015261117481611138565b9050919050565b7f4e487b7100000000000000000000000000000000000000000000000000000000600052602260045260246000fd5b600060028204905060018216806111c257607f821691505b6020821081036111d5576111d461117b565b5b50919050565b7f416c726561647920726567697374657265640000000000000000000000000000600082015250565b6000611211601283611092565b915061121c826111db565b602082019050919050565b6000602082019050818103600083015261124081611204565b9050919050565b7f557365726e616d652063616e6e6f7420626520656d7074790000000000000000600082015250565b600061127d601883611092565b915061128882611247565b602082019050919050565b600060208201905081810360008301526112ac81611270565b9050919050565b7f557365726e616d6520746f6f206c6f6e67000000000000000000000000000000600082015250565b60006112e9601183611092565b91506112f4826112b3565b602082019050919050565b60006020820190508181036000830152611318816112dc565b9050919050565b7f557365726e616d6520616c72656164792074616b656e00000000000000000000600082015250565b6000611355601683611092565b91506113608261131f565b602082019050919050565b6000602082019050818103600083015261138481611348565b9050919050565b60008190508160005260206000209050919050565b60006020601f8301049050919050565b600082821b905092915050565b6000600883026113ed7fffffffffffffffffffffffffffffffffffffffffffffffffffffffffffffffff826113b0565b6113f786836113b0565b95508019841693508086168417925050509392505050565b6000819050919050565b600061143461142f61142a84610f4d565b61140f565b610f4d565b9050919050565b6000819050919050565b61144e83611419565b61146261145a8261143b565b8484546113bd565b825550505050565b600090565b61147761146a565b611482818484611445565b505050565b5b818110156114a65761149b60008261146f565b600181019050611488565b5050565b601f8211156114eb576114bc8161138b565b6114c5846113a0565b810160208510156114d4578190505b6114e86114e0856113a0565b830182611487565b50505b505050565b600082821c905092915050565b600061150e600019846008026114f0565b1980831691505092915050565b600061152783836114fd565b9150826002028217905092915050565b61154082610eb3565b67ffffffffffffffff81111561155957611558610c7b565b5b61156382546111aa565b61156e8282856114aa565b600060209050601f8311600181146115a1576000841561158f578287015190505b611599858261151b565b865550611601565b601f1984166115af8661138b565b60005b828110156115d7578489015182556001820191506020850194506020810190506115b2565b868310156115f457848901516115f0601f8916826114fd565b8355505b6001600288020188555050505b505050505050565b600061161482610eb3565b61161e8185611092565b935061162e818560208601610ecf565b61163781610c6a565b840191505092915050565b6000602082019050818103600083015261165c8184611609565b905092915050565b7f4e6f742072656769737465726564000000000000000000000000000000000000600082015250565b600061169a600e83611092565b91506116a582611664565b602082019050919050565b600060208201905081810360008301526116c98161168d565b9050919050565b600060408201905081810360008301526116ea8185611609565b905081810360208301526116fe8184611609565b9050939250505056fea264697066735822122065cd30c0be2e7a98531392cccf8bb6bf746de15620cb571f0969c43810d7a25764736f6c63430008140033",
  "linkReferences": {},
  "deployedLinkReferences": {}
}