{
  "_format": "hh-sol-artifact-1",
  "contractName": "Crowdfunding",
  "sourceName": "contracts/Crowdfunding.sol",
  "abi": [
    {
      "inputs": [
        {
          "internalType": "address",
          "name": "_rewardToken",
          "type": "address"
        },
        {
          "internalType": "address",
          "name": "_userRegistry",
          "type": "address"
        }
      ],
      "stateMutability": "nonpayable",
      "type": "constructor"
    },
    {
      "anonymous": false,
      "inputs": [
        {
          "indexed": true,
          "internalType": "uint256",
          "name": "campaignId",
          "type": "uint256"
        },
        {
          "indexed": true,
          "internalType": "address",
          "name": "creator",
          "type": "address"
        },
        {
          "indexed": false,
          "internalType": "string",
          "name": "title",
          "type": "string"
        },
        {
          "indexed": false,
          "internalType": "uint256",
          "name": "goal",
          "type": "uint256"
        },
        {
          "indexed": false,
          "internalType": "uint256",
          "name": "deadline",
          "type": "uint256"
        }
      ],
      "name": "CampaignCreated",
      "type": "event"
    },
    {
      "anonymous": false,
      "inputs": [
        {
          "indexed": true,
          "internalType": "uint256",
          "name": "campaignId",
          "type": "uint256"
        },
        {
          "indexed": true,
          "internalType": "address",
          "name": "contributor",
          "type": "address"
        },
        {
          "indexed": false,
          "internalType": "uint256",
          "name": "amount",
          "type": "uint256"
        }
      ],
      "name": "Funded",
      "type": "event"
    },
    {
      "anonymous": false,
      "inputs": [
        {
          "indexed": true,
          "internalType": "uint256",
          "name": "campaignId",
          "type": "uint256"
        },
        {
          "indexed": true,
          "internalType": "address",
          "name": "contributor",
          "type": "address"
        },
        {
          "indexed": false,
          "internalType": "uint256",
          "name": "amount",
          "type": "uint256"
        }
      ],
      "name": "Refunded",
      "type": "event"
    },
    {
      "anonymous": false,
      "inputs": [
        {
          "indexed": true,
          "internalType": "uint256",
          "name": "campaignId",
          "type": "uint256"
        },
        {
          "indexed": true,
          "internalType": "address",
          "name": "contributor",
          "type": "address"
        },
        {
          "indexed": false,
          "internalType": "uint256",
          "name": "tokens",
          "type": "uint256"
        }
      ],
      "name": "TokensMinted",
      "type": "event"
    },
    {
      "anonymous": false,
      "inputs": [
        {
          "indexed": true,
          "internalType": "uint256",
          "name": "campaignId",
          "type": "uint256"
        },
        {
          "indexed": true,
          "internalType": "address",
          "name": "creator",
          "type": "address"
        },
        {
          "indexed": false,
          "internalType": "uint256",
          "name": "amount",
          "type": "uint256"
        }
      ],
      "name": "Withdrawn",
      "type": "event"
    },
    {
      "inputs": [],
      "name": "campaignCount",
      "outputs": [
        {
          "internalType": "uint256",
          "name": "",
          "type": "uint256"
        }
      ],
      "stateMutability": "view",
      "type": "function"
    },
    {
      "inputs": [
        {
          "internalType": "uint256",
          "name": "",
          "type": "uint256"
        }
      ],
      "name": "campaigns",
      "outputs": [
        {
          "internalType": "uint256",
          "name": "id",
          "type": "uint256"
        },
        {
          "internalType": "address payable",
          "name": "creator",
          "type": "address"
        },
        {
          "internalType": "string",
          "name": "title",
          "type": "string"
        },
        {
          "internalType": "string",
          "name": "description",
          "type": "string"
        },
        {
          "internalType": "uint256",
          "name": "goal",
          "type": "uint256"
        },
        {
          "internalType": "uint256",
          "name": "deadline",
          "type": "uint256"
        },
        {
          "internalType": "uint256",
          "name": "amountRaised",
          "type": "uint256"
        },
        {
          "internalType": "bool",
          "name": "withdrawn",
          "type": "bool"
        },
        {
          "internalType": "bool",
          "name": "exists",
          "type": "bool"
        }
      ],
      "stateMutability": "view",
      "type": "function"
    },
    {
      "inputs": [
        {
          "internalType": "uint256",
          "name": "_campaignId",
          "type": "uint256"
        }
      ],
      "name": "claimRefund",
      "outputs": [],
      "stateMutability": "nonpayable",
      "type": "function"
    },
    {
      "inputs": [
        {
          "internalType": "uint256",
          "name": "_campaignId",
          "type": "uint256"
        }
      ],
      "name": "contribute",
      "outputs": [],
      "stateMutability": "payable",
      "type": "function"
    },
    {
      "inputs": [
        {
          "internalType": "uint256",
          "name": "",
          "type": "uint256"
        },
        {
          "internalType": "address",
          "name": "",
          "type": "address"
        }
      ],
      "name": "contributions",
      "outputs": [
        {
          "internalType": "uint256",
          "name": "",
          "type": "uint256"
        }
      ],
      "stateMutability": "view",
      "type": "function"
    },
    {
      "inputs": [
        {
          "internalType": "string",
          "name": "_title",
          "type": "string"
        },
        {
          "internalType": "string",
          "name": "_description",
          "type": "string"
        },
        {
          "internalType": "uint256",
          "name": "_goal",
          "type": "uint256"
        },
        {
          "internalType": "uint256",
          "name": "_deadline",
          "type": "uint256"
        }
      ],
      "name": "createCampaign",
      "outputs": [
        {
          "internalType": "uint256",
          "name": "",
          "type": "uint256"
        }
      ],
      "stateMutability": "nonpayable",
      "type": "function"
    },
    {
      "inputs": [],
      "name": "getAllCampaigns",
      "outputs": [
        {
          "components": [
            {
              "internalType": "uint256",
              "name": "id",
              "type": "uint256"
            },
            {
              "internalType": "address payable",
              "name": "creator",
              "type": "address"
            },
            {
              "internalType": "string",
              "name": "title",
              "type": "string"
            },
            {
              "internalType": "string",
              "name": "description",
              "type": "string"
            },
            {
              "internalType": "uint256",
              "name": "goal",
              "type": "uint256"
            },
            {
              "internalType": "uint256",
              "name": "deadline",
              "type": "uint256"
            },
            {
              "internalType": "uint256",
              "name": "amountRaised",
              "type": "uint256"
            },
            {
              "internalType": "bool",
              "name": "withdrawn",
              "type": "bool"
            },
            {
              "internalType": "bool",
              "name": "exists",
              "type": "bool"
            }
          ],
          "internalType": "struct Crowdfunding.Campaign[]",
          "name": "",
          "type": "tuple[]"
        }
      ],
      "stateMutability": "view",
      "type": "function"
    },
    {
      "inputs": [
        {
          "internalType": "uint256",
          "name": "_id",
          "type": "uint256"
        }
      ],
      "name": "getCampaign",
      "outputs": [
        {
          "components": [
            {
              "internalType": "uint256",
              "name": "id",
              "type": "uint256"
            },
            {
              "internalType": "address payable",
              "name": "creator",
              "type": "address"
            },
            {
              "internalType": "string",
              "name": "title",
              "type": "string"
            },
            {
              "internalType": "string",
              "name": "description",
              "type": "string"
            },
            {
              "internalType": "uint256",
              "name": "goal",
              "type": "uint256"
            },
            {
              "internalType": "uint256",
              "name": "deadline",
              "type": "uint256"
            },
            {
              "internalType": "uint256",
              "name": "amountRaised",
              "type": "uint256"
            },
            {
              "internalType": "bool",
              "name": "withdrawn",
              "type": "bool"
            },
            {
              "internalType": "bool",
              "name": "exists",
              "type": "bool"
            }
          ],
          "internalType": "struct Crowdfunding.Campaign",
          "name": "",
          "type": "tuple"
        }
      ],
      "stateMutability": "view",
      "type": "function"
    },
    {
      "inputs": [
        {
          "internalType": "uint256",
          "name": "_campaignId",
          "type": "uint256"
        },
        {
          "internalType": "address",
          "name": "_contributor",
          "type": "address"
        }
      ],
      "name": "getContribution",
      "outputs": [
        {
          "internalType": "uint256",
          "name": "",
          "type": "uint256"
        }
      ],
      "stateMutability": "view",
      "type": "function"
    },
    {
      "inputs": [],
      "name": "rewardToken",
      "outputs": [
        {
          "internalType": "contract RewardToken",
          "name": "",
          "type": "address"
        }
      ],
      "stateMutability": "view",
      "type": "function"
    },
    {
      "inputs": [],
      "name": "userRegistry",
      "outputs": [
        {
          "internalType": "contract UserRegistry",
          "name": "",
          "type": "address"
        }
      ],
      "stateMutability": "view",
      "type": "function"
    },
    {
      "inputs": [
        {
          "internalType": "uint256",
          "name": "_campaignId",
          "type": "uint256"
        }
      ],
      "name": "withdrawFunds",
      "outputs": [],
      "stateMutability": "nonpayable",
      "type": "function"
    }
  ],
  "bytecode": "0x60806040523480156200001157600080fd5b5060405162002c3138038062002c3183398181016040528101906200003791906200012b565b81600360006101000a81548173ffffffffffffffffffffffffffffffffffffffff021916908373ffffffffffffffffffffffffffffffffffffffff16021790555080600460006101000a81548173ffffffffffffffffffffffffffffffffffffffff021916908373ffffffffffffffffffffffffffffffffffffffff160217905550505062000172565b600080fd5b600073ffffffffffffffffffffffffffffffffffffffff82169050919050565b6000620000f382620000c6565b9050919050565b6200010581620000e6565b81146200011157600080fd5b50565b6000815190506200012581620000fa565b92915050565b60008060408385031215620001455762000144620000c1565b5b6000620001558582860162000114565b9250506020620001688582860162000114565b9150509250929050565b612aaf80620001826000396000f3fe6080604052600436106100a75760003560e01c80637274e30d116100645780637274e30d146101e857806386cdf60414610213578063a318f2691461023e578063c1cbbca71461027b578063e081dbf914610297578063f7c618c1146102d4576100a7565b8063141961bc146100ac578063155dd5ee146100f15780633d891f591461011a5780635598f8cc146101575780635b7baf64146101945780635c7460d6146101bd575b600080fd5b3480156100b857600080fd5b506100d360048036038101906100ce91906117c8565b6102ff565b6040516100e8999897969594939291906118f0565b60405180910390f35b3480156100fd57600080fd5b50610118600480360381019061011391906117c8565b610497565b005b34801561012657600080fd5b50610141600480360381019061013c91906119c9565b61076c565b60405161014e9190611a09565b60405180910390f35b34801561016357600080fd5b5061017e600480360381019061017991906117c8565b610791565b60405161018b9190611b67565b60405180910390f35b3480156101a057600080fd5b506101bb60048036038101906101b691906117c8565b6109fa565b005b3480156101c957600080fd5b506101d2610c8e565b6040516101df9190611be8565b60405180910390f35b3480156101f457600080fd5b506101fd610cb4565b60405161020a9190611a09565b60405180910390f35b34801561021f57600080fd5b50610228610cba565b6040516102359190611d91565b60405180910390f35b34801561024a57600080fd5b5061026560048036038101906102609190611ee8565b610f52565b6040516102729190611a09565b60405180910390f35b610295600480360381019061029091906117c8565b6112c0565b005b3480156102a357600080fd5b506102be60048036038101906102b991906119c9565b611697565b6040516102cb9190611a09565b60405180910390f35b3480156102e057600080fd5b506102e96116f2565b6040516102f69190611fa8565b60405180910390f35b60006020528060005260406000206000915090508060000154908060010160009054906101000a900473ffffffffffffffffffffffffffffffffffffffff169080600201805461034e90611ff2565b80601f016020809104026020016040519081016040528092919081815260200182805461037a90611ff2565b80156103c75780601f1061039c576101008083540402835291602001916103c7565b820191906000526020600020905b8154815290600101906020018083116103aa57829003601f168201915b5050505050908060030180546103dc90611ff2565b80601f016020809104026020016040519081016040528092919081815260200182805461040890611ff2565b80156104555780601f1061042a57610100808354040283529160200191610455565b820191906000526020600020905b81548152906001019060200180831161043857829003601f168201915b5050505050908060040154908060050154908060060154908060070160009054906101000a900460ff16908060070160019054906101000a900460ff16905089565b8060008082815260200190815260200160002060070160019054906101000a900460ff166104fa576040517f08c379a00000000000000000000000000000000000000000000000000000000081526004016104f19061206f565b60405180910390fd5b600080600084815260200190815260200160002090508060010160009054906101000a900473ffffffffffffffffffffffffffffffffffffffff1673ffffffffffffffffffffffffffffffffffffffff163373ffffffffffffffffffffffffffffffffffffffff16146105a2576040517f08c379a0000000000000000000000000000000000000000000000000000000008152600401610599906120db565b60405180910390fd5b8060040154816006015410156105ed576040517f08c379a00000000000000000000000000000000000000000000000000000000081526004016105e490612147565b60405180910390fd5b8060050154421015610634576040517f08c379a000000000000000000000000000000000000000000000000000000000815260040161062b906121b3565b60405180910390fd5b8060070160009054906101000a900460ff1615610686576040517f08c379a000000000000000000000000000000000000000000000000000000000815260040161067d9061221f565b60405180910390fd5b60018160070160006101000a81548160ff0219169083151502179055506000816006015490508160010160009054906101000a900473ffffffffffffffffffffffffffffffffffffffff1673ffffffffffffffffffffffffffffffffffffffff166108fc829081150290604051600060405180830381858888f19350505050158015610716573d6000803e3d6000fd5b503373ffffffffffffffffffffffffffffffffffffffff16847fcf7d23a3cbe4e8b36ff82fd1b05b1b17373dc7804b4ebbd6e2356716ef2023728360405161075e9190611a09565b60405180910390a350505050565b6001602052816000526040600020602052806000526040600020600091509150505481565b610799611718565b8160008082815260200190815260200160002060070160019054906101000a900460ff166107fc576040517f08c379a00000000000000000000000000000000000000000000000000000000081526004016107f39061206f565b60405180910390fd5b60008084815260200190815260200160002060405180610120016040529081600082015481526020016001820160009054906101000a900473ffffffffffffffffffffffffffffffffffffffff1673ffffffffffffffffffffffffffffffffffffffff1673ffffffffffffffffffffffffffffffffffffffff16815260200160028201805461088a90611ff2565b80601f01602080910402602001604051908101604052809291908181526020018280546108b690611ff2565b80156109035780601f106108d857610100808354040283529160200191610903565b820191906000526020600020905b8154815290600101906020018083116108e657829003601f168201915b5050505050815260200160038201805461091c90611ff2565b80601f016020809104026020016040519081016040528092919081815260200182805461094890611ff2565b80156109955780601f1061096a57610100808354040283529160200191610995565b820191906000526020600020905b81548152906001019060200180831161097857829003601f168201915b505050505081526020016004820154815260200160058201548152602001600682015481526020016007820160009054906101000a900460ff161515151581526020016007820160019054906101000a900460ff161515151581525050915050919050565b8060008082815260200190815260200160002060070160019054906101000a900460ff16610a5d576040517f08c379a0000000000000000000000000000000000000000000000000000000008152600401610a549061206f565b60405180910390fd5b600080600084815260200190815260200160002090508060050154421015610aba576040517f08c379a0000000000000000000000000000000000000000000000000000000008152600401610ab1906121b3565b60405180910390fd5b8060040154816006015410610b04576040517f08c379a0000000000000000000000000000000000000000000000000000000008152600401610afb9061228b565b60405180910390fd5b60006001600085815260200190815260200160002060003373ffffffffffffffffffffffffffffffffffffffff1673ffffffffffffffffffffffffffffffffffffffff16815260200190815260200160002054905060008111610b9c576040517f08c379a0000000000000000000000000000000000000000000000000000000008152600401610b93906122f7565b60405180910390fd5b60006001600086815260200190815260200160002060003373ffffffffffffffffffffffffffffffffffffffff1673ffffffffffffffffffffffffffffffffffffffff168152602001908152602001600020819055503373ffffffffffffffffffffffffffffffffffffffff166108fc829081150290604051600060405180830381858888f19350505050158015610c38573d6000803e3d6000fd5b503373ffffffffffffffffffffffffffffffffffffffff16847f7ca5472b7ea78c2c0141c5a12ee6d170cf4ce8ed06be3d22c8252ddfc7a6a2c483604051610c809190611a09565b60405180910390a350505050565b600460009054906101000a900473ffffffffffffffffffffffffffffffffffffffff1681565b60025481565b6060600060025467ffffffffffffffff811115610cda57610cd9611dbd565b5b604051908082528060200260200182016040528015610d1357816020015b610d00611718565b815260200190600190039081610cf85790505b50905060005b600254811015610f4a5760008082815260200190815260200160002060405180610120016040529081600082015481526020016001820160009054906101000a900473ffffffffffffffffffffffffffffffffffffffff1673ffffffffffffffffffffffffffffffffffffffff1673ffffffffffffffffffffffffffffffffffffffff168152602001600282018054610db190611ff2565b80601f0160208091040260200160405190810160405280929190818152602001828054610ddd90611ff2565b8015610e2a5780601f10610dff57610100808354040283529160200191610e2a565b820191906000526020600020905b815481529060010190602001808311610e0d57829003601f168201915b50505050508152602001600382018054610e4390611ff2565b80601f0160208091040260200160405190810160405280929190818152602001828054610e6f90611ff2565b8015610ebc5780601f10610e9157610100808354040283529160200191610ebc565b820191906000526020600020905b815481529060010190602001808311610e9f57829003601f168201915b505050505081526020016004820154815260200160058201548152602001600682015481526020016007820160009054906101000a900460ff161515151581526020016007820160019054906101000a900460ff161515151581525050828281518110610f2c57610f2b612317565b5b60200260200101819052508080610f4290612375565b915050610d19565b508091505090565b6000600460009054906101000a900473ffffffffffffffffffffffffffffffffffffffff1673ffffffffffffffffffffffffffffffffffffffff1663c3c5a547336040518263ffffffff1660e01b8152600401610faf91906123cc565b602060405180830381865afa158015610fcc573d6000803e3d6000fd5b505050506040513d601f19601f82011682018060405250810190610ff09190612413565b61102f576040517f08c379a00000000000000000000000000000000000000000000000000000000081526004016110269061248c565b60405180910390fd5b6000855111611073576040517f08c379a000000000000000000000000000000000000000000000000000000000815260040161106a906124f8565b60405180910390fd5b600083116110b6576040517f08c379a00000000000000000000000000000000000000000000000000000000081526004016110ad90612564565b60405180910390fd5b4282116110f8576040517f08c379a00000000000000000000000000000000000000000000000000000000081526004016110ef906125d0565b60405180910390fd5b60006002600081548092919061110d90612375565b9190505590506040518061012001604052808281526020013373ffffffffffffffffffffffffffffffffffffffff16815260200187815260200186815260200185815260200184815260200160008152602001600015158152602001600115158152506000808381526020019081526020016000206000820151816000015560208201518160010160006101000a81548173ffffffffffffffffffffffffffffffffffffffff021916908373ffffffffffffffffffffffffffffffffffffffff16021790555060408201518160020190816111e89190612792565b5060608201518160030190816111fe9190612792565b506080820151816004015560a0820151816005015560c0820151816006015560e08201518160070160006101000a81548160ff0219169083151502179055506101008201518160070160016101000a81548160ff0219169083151502179055509050503373ffffffffffffffffffffffffffffffffffffffff16817fdc26653af5b99b2da33e2ad69ee6600d9aeccc82b034501db4338309615ca2388887876040516112ac93929190612864565b60405180910390a380915050949350505050565b600460009054906101000a900473ffffffffffffffffffffffffffffffffffffffff1673ffffffffffffffffffffffffffffffffffffffff1663c3c5a547336040518263ffffffff1660e01b815260040161131b91906123cc565b602060405180830381865afa158015611338573d6000803e3d6000fd5b505050506040513d601f19601f8201168201806040525081019061135c9190612413565b61139b576040517f08c379a00000000000000000000000000000000000000000000000000000000081526004016113929061248c565b60405180910390fd5b8060008082815260200190815260200160002060070160019054906101000a900460ff166113fe576040517f08c379a00000000000000000000000000000000000000000000000000000000081526004016113f59061206f565b60405180910390fd5b600080600084815260200190815260200160002090508060050154421061145a576040517f08c379a0000000000000000000000000000000000000000000000000000000008152600401611451906128ee565b60405180910390fd5b6000341161149d576040517f08c379a00000000000000000000000000000000000000000000000000000000081526004016114949061295a565b60405180910390fd5b346001600085815260200190815260200160002060003373ffffffffffffffffffffffffffffffffffffffff1673ffffffffffffffffffffffffffffffffffffffff16815260200190815260200160002060008282546114fd919061297a565b9250508190555034816006016000828254611518919061297a565b925050819055503373ffffffffffffffffffffffffffffffffffffffff16837f38c48552690c96ec2872092ac1db6c19fb59f5a8c5b49bbf41ed4886d0ca6926346040516115669190611a09565b60405180910390a38060040154816006015410611692576000670de0b6b3a76400003461159391906129dd565b9050600081111561169057600360009054906101000a900473ffffffffffffffffffffffffffffffffffffffff1673ffffffffffffffffffffffffffffffffffffffff166340c10f1933670de0b6b3a7640000846115f19190612a0e565b6040518363ffffffff1660e01b815260040161160e929190612a50565b600060405180830381600087803b15801561162857600080fd5b505af115801561163c573d6000803e3d6000fd5b505050503373ffffffffffffffffffffffffffffffffffffffff16847f5c8e94c72da12a6d6a1213edafd788896df5fd2d6527a9adeb11f8e5d0be1c4c836040516116879190611a09565b60405180910390a35b505b505050565b60006001600084815260200190815260200160002060008373ffffffffffffffffffffffffffffffffffffffff1673ffffffffffffffffffffffffffffffffffffffff16815260200190815260200160002054905092915050565b600360009054906101000a900473ffffffffffffffffffffffffffffffffffffffff1681565b60405180610120016040528060008152602001600073ffffffffffffffffffffffffffffffffffffffff16815260200160608152602001606081526020016000815260200160008152602001600081526020016000151581526020016000151581525090565b6000604051905090565b600080fd5b600080fd5b6000819050919050565b6117a581611792565b81146117b057600080fd5b50565b6000813590506117c28161179c565b92915050565b6000602082840312156117de576117dd611788565b5b60006117ec848285016117b3565b91505092915050565b6117fe81611792565b82525050565b600073ffffffffffffffffffffffffffffffffffffffff82169050919050565b600061182f82611804565b9050919050565b61183f81611824565b82525050565b600081519050919050565b600082825260208201905092915050565b60005b8381101561187f578082015181840152602081019050611864565b60008484015250505050565b6000601f19601f8301169050919050565b60006118a782611845565b6118b18185611850565b93506118c1818560208601611861565b6118ca8161188b565b840191505092915050565b60008115159050919050565b6118ea816118d5565b82525050565b600061012082019050611906600083018c6117f5565b611913602083018b611836565b8181036040830152611925818a61189c565b90508181036060830152611939818961189c565b905061194860808301886117f5565b61195560a08301876117f5565b61196260c08301866117f5565b61196f60e08301856118e1565b61197d6101008301846118e1565b9a9950505050505050505050565b600061199682611804565b9050919050565b6119a68161198b565b81146119b157600080fd5b50565b6000813590506119c38161199d565b92915050565b600080604083850312156119e0576119df611788565b5b60006119ee858286016117b3565b92505060206119ff858286016119b4565b9150509250929050565b6000602082019050611a1e60008301846117f5565b92915050565b611a2d81611792565b82525050565b611a3c81611824565b82525050565b600082825260208201905092915050565b6000611a5e82611845565b611a688185611a42565b9350611a78818560208601611861565b611a818161188b565b840191505092915050565b611a95816118d5565b82525050565b600061012083016000830151611ab46000860182611a24565b506020830151611ac76020860182611a33565b5060408301518482036040860152611adf8282611a53565b91505060608301518482036060860152611af98282611a53565b9150506080830151611b0e6080860182611a24565b5060a0830151611b2160a0860182611a24565b5060c0830151611b3460c0860182611a24565b5060e0830151611b4760e0860182611a8c565b50610100830151611b5c610100860182611a8c565b508091505092915050565b60006020820190508181036000830152611b818184611a9b565b905092915050565b6000819050919050565b6000611bae611ba9611ba484611804565b611b89565b611804565b9050919050565b6000611bc082611b93565b9050919050565b6000611bd282611bb5565b9050919050565b611be281611bc7565b82525050565b6000602082019050611bfd6000830184611bd9565b92915050565b600081519050919050565b600082825260208201905092915050565b6000819050602082019050919050565b600061012083016000830151611c486000860182611a24565b506020830151611c5b6020860182611a33565b5060408301518482036040860152611c738282611a53565b91505060608301518482036060860152611c8d8282611a53565b9150506080830151611ca26080860182611a24565b5060a0830151611cb560a0860182611a24565b5060c0830151611cc860c0860182611a24565b5060e0830151611cdb60e0860182611a8c565b50610100830151611cf0610100860182611a8c565b508091505092915050565b6000611d078383611c2f565b905092915050565b6000602082019050919050565b6000611d2782611c03565b611d318185611c0e565b935083602082028501611d4385611c1f565b8060005b85811015611d7f5784840389528151611d608582611cfb565b9450611d6b83611d0f565b925060208a01995050600181019050611d47565b50829750879550505050505092915050565b60006020820190508181036000830152611dab8184611d1c565b905092915050565b600080fd5b600080fd5b7f4e487b7100000000000000000000000000000000000000000000000000000000600052604160045260246000fd5b611df58261188b565b810181811067ffffffffffffffff82111715611e1457611e13611dbd565b5b80604052505050565b6000611e2761177e565b9050611e338282611dec565b919050565b600067ffffffffffffffff821115611e5357611e52611dbd565b5b611e5c8261188b565b9050602081019050919050565b82818337600083830152505050565b6000611e8b611e8684611e38565b611e1d565b905082815260208101848484011115611ea757611ea6611db8565b5b611eb2848285611e69565b509392505050565b600082601f830112611ecf57611ece611db3565b5b8135611edf848260208601611e78565b91505092915050565b60008060008060808587031215611f0257611f01611788565b5b600085013567ffffffffffffffff811115611f2057611f1f61178d565b5b611f2c87828801611eba565b945050602085013567ffffffffffffffff811115611f4d57611f4c61178d565b5b611f5987828801611eba565b9350506040611f6a878288016117b3565b9250506060611f7b878288016117b3565b91505092959194509250565b6000611f9282611bb5565b9050919050565b611fa281611f87565b82525050565b6000602082019050611fbd6000830184611f99565b92915050565b7f4e487b7100000000000000000000000000000000000000000000000000000000600052602260045260246000fd5b6000600282049050600182168061200a57607f821691505b60208210810361201d5761201c611fc3565b5b50919050565b7f43616d706169676e20646f6573206e6f74206578697374000000000000000000600082015250565b6000612059601783611850565b915061206482612023565b602082019050919050565b600060208201905081810360008301526120888161204c565b9050919050565b7f4f6e6c792063726561746f722063616e20776974686472617700000000000000600082015250565b60006120c5601983611850565b91506120d08261208f565b602082019050919050565b600060208201905081810360008301526120f4816120b8565b9050919050565b7f476f616c206e6f74207265616368656400000000000000000000000000000000600082015250565b6000612131601083611850565b915061213c826120fb565b602082019050919050565b6000602082019050818103600083015261216081612124565b9050919050565b7f43616d706169676e207374696c6c206163746976650000000000000000000000600082015250565b600061219d601583611850565b91506121a882612167565b602082019050919050565b600060208201905081810360008301526121cc81612190565b9050919050565b7f416c72656164792077697468647261776e000000000000000000000000000000600082015250565b6000612209601183611850565b9150612214826121d3565b602082019050919050565b60006020820190508181036000830152612238816121fc565b9050919050565b7f476f616c2077617320726561636865642c206e6f20726566756e640000000000600082015250565b6000612275601b83611850565b91506122808261223f565b602082019050919050565b600060208201905081810360008301526122a481612268565b9050919050565b7f4e6f20636f6e747269627574696f6e20746f20726566756e6400000000000000600082015250565b60006122e1601983611850565b91506122ec826122ab565b602082019050919050565b60006020820190508181036000830152612310816122d4565b9050919050565b7f4e487b7100000000000000000000000000000000000000000000000000000000600052603260045260246000fd5b7f4e487b7100000000000000000000000000000000000000000000000000000000600052601160045260246000fd5b600061238082611792565b91507fffffffffffffffffffffffffffffffffffffffffffffffffffffffffffffffff82036123b2576123b1612346565b5b600182019050919050565b6123c68161198b565b82525050565b60006020820190506123e160008301846123bd565b92915050565b6123f0816118d5565b81146123fb57600080fd5b50565b60008151905061240d816123e7565b92915050565b60006020828403121561242957612428611788565b5b6000612437848285016123fe565b91505092915050565b7f4d75737420626520726567697374657265640000000000000000000000000000600082015250565b6000612476601283611850565b915061248182612440565b602082019050919050565b600060208201905081810360008301526124a581612469565b9050919050565b7f5469746c65207265717569726564000000000000000000000000000000000000600082015250565b60006124e2600e83611850565b91506124ed826124ac565b602082019050919050565b60006020820190508181036000830152612511816124d5565b9050919050565b7f476f616c206d757374206265203e203000000000000000000000000000000000600082015250565b600061254e601083611850565b915061255982612518565b602082019050919050565b6000602082019050818103600083015261257d81612541565b9050919050565b7f446561646c696e65206d75737420626520696e20746865206675747572650000600082015250565b60006125ba601e83611850565b91506125c582612584565b602082019050919050565b600060208201905081810360008301526125e9816125ad565b9050919050565b60008190508160005260206000209050919050565b60006020601f8301049050919050565b600082821b905092915050565b6000600883026126527fffffffffffffffffffffffffffffffffffffffffffffffffffffffffffffffff82612615565b61265c8683612615565b95508019841693508086168417925050509392505050565b600061268f61268a61268584611792565b611b89565b611792565b9050919050565b6000819050919050565b6126a983612674565b6126bd6126b582612696565b848454612622565b825550505050565b600090565b6126d26126c5565b6126dd8184846126a0565b505050565b5b81811015612701576126f66000826126ca565b6001810190506126e3565b5050565b601f82111561274657612717816125f0565b61272084612605565b8101602085101561272f578190505b61274361273b85612605565b8301826126e2565b50505b505050565b600082821c905092915050565b60006127696000198460080261274b565b1980831691505092915050565b60006127828383612758565b9150826002028217905092915050565b61279b82611845565b67ffffffffffffffff8111156127b4576127b3611dbd565b5b6127be8254611ff2565b6127c9828285612705565b600060209050601f8311600181146127fc57600084156127ea578287015190505b6127f48582612776565b86555061285c565b601f19841661280a866125f0565b60005b828110156128325784890151825560018201915060208501945060208101905061280d565b8683101561284f578489015161284b601f891682612758565b8355505b6001600288020188555050505b505050505050565b6000606082019050818103600083015261287e818661189c565b905061288d60208301856117f5565b61289a60408301846117f5565b949350505050565b7f43616d706169676e2068617320656e6465640000000000000000000000000000600082015250565b60006128d8601283611850565b91506128e3826128a2565b602082019050919050565b60006020820190508181036000830152612907816128cb565b9050919050565b7f436f6e747269627574696f6e206d757374206265203e20300000000000000000600082015250565b6000612944601883611850565b915061294f8261290e565b602082019050919050565b6000602082019050818103600083015261297381612937565b9050919050565b600061298582611792565b915061299083611792565b92508282019050808211156129a8576129a7612346565b5b92915050565b7f4e487b7100000000000000000000000000000000000000000000000000000000600052601260045260246000fd5b60006129e882611792565b91506129f383611792565b925082612a0357612a026129ae565b5b828204905092915050565b6000612a1982611792565b9150612a2483611792565b9250828202612a3281611792565b91508282048414831517612a4957612a48612346565b5b5092915050565b6000604082019050612a6560008301856123bd565b612a7260208301846117f5565b939250505056fea264697066735822122040a612fee50d5ed6fed2f75937b4aa646031efdaab27907fedb947171eee2e7d64736f6c63430008140033",
  "linkReferences": {},
  "deployedLinkReferences": {}
}